{
  "_format": "hh-sol-artifact-1",
  "contractName": "WavePortal",
  "sourceName": "contracts/WavePortal.sol",
  "abi": [
    {
      "inputs": [],
      "stateMutability": "payable",
      "type": "constructor"
    },
    {
      "anonymous": false,
      "inputs": [
        {
          "indexed": true,
          "internalType": "address",
          "name": "from",
          "type": "address"
        },
        {
          "indexed": false,
          "internalType": "uint256",
          "name": "timestamp",
          "type": "uint256"
        },
        {
          "indexed": false,
          "internalType": "string",
          "name": "message",
          "type": "string"
        }
      ],
      "name": "NewWave",
      "type": "event"
    },
    {
      "anonymous": false,
      "inputs": [
        {
          "indexed": false,
          "internalType": "uint256",
          "name": "flag_number",
          "type": "uint256"
        }
      ],
      "name": "userWon",
      "type": "event"
    },
    {
      "inputs": [],
      "name": "getAllWaves",
      "outputs": [
        {
          "components": [
            {
              "internalType": "address",
              "name": "waver",
              "type": "address"
            },
            {
              "internalType": "string",
              "name": "message",
              "type": "string"
            },
            {
              "internalType": "uint256",
              "name": "timestamp",
              "type": "uint256"
            }
          ],
          "internalType": "struct WavePortal.Wave[]",
          "name": "",
          "type": "tuple[]"
        }
      ],
      "stateMutability": "view",
      "type": "function"
    },
    {
      "inputs": [],
      "name": "getTotalWaves",
      "outputs": [
        {
          "internalType": "uint256",
          "name": "",
          "type": "uint256"
        },
        {
          "internalType": "uint256",
          "name": "",
          "type": "uint256"
        }
      ],
      "stateMutability": "view",
      "type": "function"
    },
    {
      "inputs": [
        {
          "internalType": "address",
          "name": "",
          "type": "address"
        }
      ],
      "name": "lastWavedAt",
      "outputs": [
        {
          "internalType": "uint256",
          "name": "",
          "type": "uint256"
        }
      ],
      "stateMutability": "view",
      "type": "function"
    },
    {
      "inputs": [
        {
          "internalType": "string",
          "name": "_message",
          "type": "string"
        }
      ],
      "name": "wave",
      "outputs": [],
      "stateMutability": "nonpayable",
      "type": "function"
    },
    {
      "inputs": [
        {
          "internalType": "address",
          "name": "",
          "type": "address"
        }
      ],
      "name": "wavesPerAddress",
      "outputs": [
        {
          "internalType": "uint256",
          "name": "",
          "type": "uint256"
        }
      ],
      "stateMutability": "view",
      "type": "function"
    }
  ],
  "bytecode": "0x6080604052620000336040518060600160405280602d8152602001620015cb602d91396200003960201b620007f41760201c565b620001cd565b620000d98160405160240162000050919062000146565b6040516020818303038152906040527f41304fac000000000000000000000000000000000000000000000000000000007bffffffffffffffffffffffffffffffffffffffffffffffffffffffff19166020820180517bffffffffffffffffffffffffffffffffffffffffffffffffffffffff8381831617835250505050620000dc60201b60201c565b50565b60008151905060006a636f6e736f6c652e6c6f679050602083016000808483855afa5050505050565b600062000112826200016a565b6200011e818562000175565b93506200013081856020860162000186565b6200013b81620001bc565b840191505092915050565b6000602082019050818103600083015262000162818462000105565b905092915050565b600081519050919050565b600082825260208201905092915050565b60005b83811015620001a657808201518184015260208101905062000189565b83811115620001b6576000848401525b50505050565b6000601f19601f8301169050919050565b6113ee80620001dd6000396000f3fe608060405234801561001057600080fd5b50600436106100575760003560e01c8063449d46c01461005c5780639a2cdc0814610078578063a42a466314610097578063bd43a908146100c7578063ee51c52a146100e5575b600080fd5b61007660048036038101906100719190610bd6565b610115565b005b6100806105e4565b60405161008e929190611090565b60405180910390f35b6100b160048036038101906100ac9190610bad565b610673565b6040516100be9190611045565b60405180910390f35b6100cf61068b565b6040516100dc9190610ee8565b60405180910390f35b6100ff60048036038101906100fa9190610bad565b6107dc565b60405161010c9190611045565b60405180910390f35b42603c600260003373ffffffffffffffffffffffffffffffffffffffff1673ffffffffffffffffffffffffffffffffffffffff16815260200190815260200160002054610162919061118b565b106101a2576040517f08c379a000000000000000000000000000000000000000000000000000000000815260040161019990611025565b60405180910390fd5b42600260003373ffffffffffffffffffffffffffffffffffffffff1673ffffffffffffffffffffffffffffffffffffffff1681526020019081526020016000208190555060018060008282546101f8919061118b565b925050819055506001600360003373ffffffffffffffffffffffffffffffffffffffff1673ffffffffffffffffffffffffffffffffffffffff168152602001908152602001600020600082825461024f919061118b565b925050819055506102d56040518060400160405280602081526020017f2573206861732077617665642c2069742773206869732077617665202325642181525033600360003373ffffffffffffffffffffffffffffffffffffffff1673ffffffffffffffffffffffffffffffffffffffff1681526020019081526020016000205461088d565b600460405180606001604052803373ffffffffffffffffffffffffffffffffffffffff16815260200183815260200142815250908060018154018082558091505060019003906000526020600020906003020160009091909190915060008201518160000160006101000a81548173ffffffffffffffffffffffffffffffffffffffff021916908373ffffffffffffffffffffffffffffffffffffffff1602179055506020820151816001019080519060200190610394929190610a8d565b506040820151816002015550506000606460005442446103b4919061118b565b6103be919061118b565b6103c891906112a3565b90506104096040518060400160405280601681526020017f52616e646f6d20232067656e6572617465643a202573000000000000000000008152508261092c565b80600081905550605060005410156105905761045a6040518060400160405280600b81526020017f25732068617320776f6e21000000000000000000000000000000000000000000815250336109c8565b60006509184e72a0009050478111156104a8576040517f08c379a000000000000000000000000000000000000000000000000000000000815260040161049f90610fe5565b60405180910390fd5b60003373ffffffffffffffffffffffffffffffffffffffff16826040516104ce90610ed3565b60006040518083038185875af1925050503d806000811461050b576040519150601f19603f3d011682016040523d82523d6000602084013e610510565b606091505b5050905080610554576040517f08c379a000000000000000000000000000000000000000000000000000000000815260040161054b90611005565b60405180910390fd5b7fae6ea559823f4ef3ebc66d073511d7224eae9e6816a7dec1aa14d1f606de72ab6101946040516105859190610f0a565b60405180910390a150505b3373ffffffffffffffffffffffffffffffffffffffff167f5f7e16dc676677766a70e9c5628aa6c54ddb8b6e5188e2ae1e1f17f1ffbea71642846040516105d8929190611060565b60405180910390a25050565b6000806106286040518060400160405280601781526020017f5765206861766520256420746f74616c2077617665732100000000000000000081525060015461092c565b600154600360003373ffffffffffffffffffffffffffffffffffffffff1673ffffffffffffffffffffffffffffffffffffffff16815260200190815260200160002054915091509091565b60026020528060005260406000206000915090505481565b60606004805480602002602001604051908101604052809291908181526020016000905b828210156107d357838290600052602060002090600302016040518060600160405290816000820160009054906101000a900473ffffffffffffffffffffffffffffffffffffffff1673ffffffffffffffffffffffffffffffffffffffff1673ffffffffffffffffffffffffffffffffffffffff16815260200160018201805461073890611271565b80601f016020809104026020016040519081016040528092919081815260200182805461076490611271565b80156107b15780601f10610786576101008083540402835291602001916107b1565b820191906000526020600020905b81548152906001019060200180831161079457829003601f168201915b50505050508152602001600282015481525050815260200190600101906106af565b50505050905090565b60036020528060005260406000206000915090505481565b61088a816040516024016108089190610f25565b6040516020818303038152906040527f41304fac000000000000000000000000000000000000000000000000000000007bffffffffffffffffffffffffffffffffffffffffffffffffffffffff19166020820180517bffffffffffffffffffffffffffffffffffffffffffffffffffffffff8381831617835250505050610a64565b50565b6109278383836040516024016108a593929190610f77565b6040516020818303038152906040527f07c81217000000000000000000000000000000000000000000000000000000007bffffffffffffffffffffffffffffffffffffffffffffffffffffffff19166020820180517bffffffffffffffffffffffffffffffffffffffffffffffffffffffff8381831617835250505050610a64565b505050565b6109c48282604051602401610942929190610fb5565b6040516020818303038152906040527f9710a9d0000000000000000000000000000000000000000000000000000000007bffffffffffffffffffffffffffffffffffffffffffffffffffffffff19166020820180517bffffffffffffffffffffffffffffffffffffffffffffffffffffffff8381831617835250505050610a64565b5050565b610a6082826040516024016109de929190610f47565b6040516020818303038152906040527f319af333000000000000000000000000000000000000000000000000000000007bffffffffffffffffffffffffffffffffffffffffffffffffffffffff19166020820180517bffffffffffffffffffffffffffffffffffffffffffffffffffffffff8381831617835250505050610a64565b5050565b60008151905060006a636f6e736f6c652e6c6f679050602083016000808483855afa5050505050565b828054610a9990611271565b90600052602060002090601f016020900481019282610abb5760008555610b02565b82601f10610ad457805160ff1916838001178555610b02565b82800160010185558215610b02579182015b82811115610b01578251825591602001919060010190610ae6565b5b509050610b0f9190610b13565b5090565b5b80821115610b2c576000816000905550600101610b14565b5090565b6000610b43610b3e846110ea565b6110b9565b905082815260208101848484011115610b5b57600080fd5b610b6684828561122f565b509392505050565b600081359050610b7d816113a1565b92915050565b600082601f830112610b9457600080fd5b8135610ba4848260208601610b30565b91505092915050565b600060208284031215610bbf57600080fd5b6000610bcd84828501610b6e565b91505092915050565b600060208284031215610be857600080fd5b600082013567ffffffffffffffff811115610c0257600080fd5b610c0e84828501610b83565b91505092915050565b6000610c238383610e65565b905092915050565b610c34816111e1565b82525050565b610c43816111e1565b82525050565b6000610c548261112a565b610c5e818561114d565b935083602082028501610c708561111a565b8060005b85811015610cac5784840389528151610c8d8582610c17565b9450610c9883611140565b925060208a01995050600181019050610c74565b50829750879550505050505092915050565b610cc78161121d565b82525050565b6000610cd882611135565b610ce28185611169565b9350610cf281856020860161123e565b610cfb81611390565b840191505092915050565b6000610d1182611135565b610d1b818561117a565b9350610d2b81856020860161123e565b610d3481611390565b840191505092915050565b6000610d4c60348361117a565b91507f547279696e6720746f207769746864726177206d6f7265206d6f6e657920746860008301527f616e2074686520636f6e7472616374206861732e0000000000000000000000006020830152604082019050919050565b6000610db260278361117a565b91507f4661696c656420746f207769746864726177206d6f6e65792066726f6d20636f60008301527f6e74726163742e000000000000000000000000000000000000000000000000006020830152604082019050919050565b6000610e1860008361115e565b9150600082019050919050565b6000610e3260088361117a565b91507f576169742031356d0000000000000000000000000000000000000000000000006000830152602082019050919050565b6000606083016000830151610e7d6000860182610c2b565b5060208301518482036020860152610e958282610ccd565b9150506040830151610eaa6040860182610eb5565b508091505092915050565b610ebe81611213565b82525050565b610ecd81611213565b82525050565b6000610ede82610e0b565b9150819050919050565b60006020820190508181036000830152610f028184610c49565b905092915050565b6000602082019050610f1f6000830184610cbe565b92915050565b60006020820190508181036000830152610f3f8184610d06565b905092915050565b60006040820190508181036000830152610f618185610d06565b9050610f706020830184610c3a565b9392505050565b60006060820190508181036000830152610f918186610d06565b9050610fa06020830185610c3a565b610fad6040830184610ec4565b949350505050565b60006040820190508181036000830152610fcf8185610d06565b9050610fde6020830184610ec4565b9392505050565b60006020820190508181036000830152610ffe81610d3f565b9050919050565b6000602082019050818103600083015261101e81610da5565b9050919050565b6000602082019050818103600083015261103e81610e25565b9050919050565b600060208201905061105a6000830184610ec4565b92915050565b60006040820190506110756000830185610ec4565b81810360208301526110878184610d06565b90509392505050565b60006040820190506110a56000830185610ec4565b6110b26020830184610ec4565b9392505050565b6000604051905081810181811067ffffffffffffffff821117156110e0576110df611361565b5b8060405250919050565b600067ffffffffffffffff82111561110557611104611361565b5b601f19601f8301169050602081019050919050565b6000819050602082019050919050565b600081519050919050565b600081519050919050565b6000602082019050919050565b600082825260208201905092915050565b600081905092915050565b600082825260208201905092915050565b600082825260208201905092915050565b600061119682611213565b91506111a183611213565b9250827fffffffffffffffffffffffffffffffffffffffffffffffffffffffffffffffff038211156111d6576111d56112d4565b5b828201905092915050565b60006111ec826111f3565b9050919050565b600073ffffffffffffffffffffffffffffffffffffffff82169050919050565b6000819050919050565b600061122882611213565b9050919050565b82818337600083830152505050565b60005b8381101561125c578082015181840152602081019050611241565b8381111561126b576000848401525b50505050565b6000600282049050600182168061128957607f821691505b6020821081141561129d5761129c611332565b5b50919050565b60006112ae82611213565b91506112b983611213565b9250826112c9576112c8611303565b5b828206905092915050565b7f4e487b7100000000000000000000000000000000000000000000000000000000600052601160045260246000fd5b7f4e487b7100000000000000000000000000000000000000000000000000000000600052601260045260246000fd5b7f4e487b7100000000000000000000000000000000000000000000000000000000600052602260045260246000fd5b7f4e487b7100000000000000000000000000000000000000000000000000000000600052604160045260246000fd5b6000601f19601f8301169050919050565b6113aa816111e1565b81146113b557600080fd5b5056fea264697066735822122023be1e19aecf7891a8ed90166e4bcc91d9aef47c88d3367c5c6ea655f1694ab164736f6c634300080000334120636f6e747261637420697320736d6172742c20612067726f7570206f6620646567656e73206172656e2774",
  "linkReferences": {},
  "deployedLinkReferences": {}
}